:020000040000FA
:2000000000500020E9000000E1000000C9000000E5000000E5000000E5000000000000002E
:20002000000000000000000000000000E5000000E500000000000000E5000000E50000002C
:20004000F10E0000E5000000A5170000E500000029060000C90B0000E5000000E50000004E
:20006000E5000000F9170000E5000000E5000000E5000000E5000000E5000000E50000002D
:20008000E5000000E5000000E5000000E5000000E5000000E5000000E5000000E500000038
:2000A000E5000000E5000000E5000000E5000000E5000000E5000000E5000000E500000018
:2000C000E500000035260000044B1A68B2F5806F03D01B689B0500D4FEE7704728ED00E01E
:2000E000FEE700BFFEE700BF08B504F079FB104A104B9A420DD2D0430F4918440B4620F0FB
:2001000003000430084453F8041B834242F8041BF9D10A480A494FF000028842B8BF40F8AB
:20012000042BFADB02F040FCFFF7CEFF08BD00BF00000020F801002094730000F8010020ED
:20014000D6110020F0B5002706463C463D4683B0304603F02FFB0195019B9C4206DD00BF03
:20016000019B01330193019B9C42F8DC304603F045FB0195019BC4F5C874A34206DA00BF79
:20018000019B01330193019BA342F8DB0137B7F5487F06D0B7F5C87FCCBFC7F548743C46AE
:2001A000D6E703B0F0BD00BF38B5194D194C2B6820465B68012198472B6801210A461B6866
:2001C0002046984704F056FE00F0E8FE00F06AFE00F0BAF803F09AFB03F034FB0120FFF701
:2001E000B1FF0D490D4A0E4809680123136003600B691020A2F5FF521268984704F03EFECC
:2002000000F084F9BDE838400020FFF79BBF00BFD801001000400340B00100100C40094063
:200220000800094008B541F2342002F019F900F097FC03F02BFA0548082100F02DFB03F009
:200240006FF9BDE808400220FFF77CBFC411002070B584B0002302A80821294C0093019316
:2002600000F01AFB9DF80F309DF80E60E56A43EA06264AF6CD310220A84731460320A84722
:200280001A210120A847636B02A908221D4D0B209847A46A01206946A0472B68022B1ADC81
:2002A000022001A9A04758B92B68022B04DC0020FFF748FF04B070BD1348019905F0A8FD0D
:2002C0002B68022BF3DD114805F0A2FD0020FFF739FF04B070BD0E490E4A0F4805F098FDE2
:2002E0000E4805F095FD2B68022BD9DD0849094A094805F08DFD0099094805F089FDCFE71C
:20030000A46E00006C010020C86D000010700000886D0000906D0000786D0000A06D0000A5
:20032000B86D000000F084BC10B5064C042023685B699847236804205B6B98470128F9D1B8
:2003400010BD00BFB8010010F0B593B004F092FD0746FFF7E9FF194B4FF4A0601B68DB6944
:200360009847174B0121174A196013689907FCD5002004F0B7F9144800F088FD48226846A7
:20038000124906F035FC009C621C0FD06D46104E336820469B6B9847336820469B694FF4A3
:2003A0000051984755F8044F631CF1D10FB113B0F0BD13B0BDE8F04004F060BDB80100108A
:2003C000282008602820084000000020DC6D0000B401001010B5064C042023685B69984746
:2003E000236804205B6B98470128F9D110BD00BFB8010010F8B51A4A00200021C2E9000163
:20040000184B04201B685B6B9847012801D0FFF7E1FF144B00201B68DB699847124B0121B9
:20042000124A196013689B07FCD5114A11491368096823F4807323F001030F4C13600B68F6
:2004400020460E49984740F221200D4D0D490E4B04273126012227602E6008601A60F8BD33
:20046000F8010020B801001028200860282008400C000140C80100100000014000210004CE
:200480003C000140080001400400244310B40949094C0B68226808688342FAD1DB01074997
:2004A00003EB52620023C1E900235DF8044BD1E900017047082009400C200940F801002095
:2004C00010B50B490B4C0B68226808688342FAD1DB01094903EB52620023C1E9002302F0FD
:2004E000CFFC00B910BDBDE8104002F0A9BC00BF082009400C200940F8010020704700BF2B
:200500000146012000F052B804F002BF2DE9F04104F0B0FC1D4E1E4B1E4F326801240025B8
:2005200080464FF480314FF480703D601C60186019601368284623219847336820461B6834
:2005400024219847336802201B6825219847124A1249136843F4E02313600D6004F0D8FEFC
:200560000F4B1049104A1B6800F50070086014603C601B6914209847B8F1000F01D0BDE849
:20058000F081BDE8F04104F079BC00BF8401001004200940000024430020094008200940E9
:2005A000B00100101C200940A0022443431E012B10B41BD9042802D05DF8044B704700232B
:2005C0001A4610F004001CBF0E4C216013B10E4B0121196012B10D4B01221A600028EBD0AE
:2005E0000B4B01221A605DF8044B704710F0010302D0084A0123116010F00202E1D0064CE9
:200600002160DEE72020094080022443A0022443C0022443182009401C200940014B18681E
:20062000704700BF2002002008B5FFF76DFF184B1860FFF745FF174B1B686BB9164B1B68E1
:20064000E3B9164B1B6833B11549164B00204FF4803208601A6008BD124B4FF480721A60AF
:2006600004F056FE00F205200F4B20F4FF7020F001001860084B1B68002BE2D00B49094B5A
:200680000020012208601A6002F0CAFDD9E700BF20020020A000244380002443C0002443A6
:2006A000C0022443042009401C20094080022443820702D5034B01221A60C30700D4704796
:2006C00004F0DCBB000C084008B504F0D3FB074B1A68012A03BF06490222196000220028C5
:2006E00014BF104642F0010008BD00BF000C084051E5CC1A03490448044B012208601A60BE
:20070000704700BF00000840FFFF0F00000C084038B5FFF7D9FF064C064D0749074A012395
:2007200025600B601360BDE83840FFF7C1BF00BF00000840FFFF0F000C0008400401004313
:2007400003490448044B012208601A60704700BF00000840FFFF0F000C00084008B5064883
:2007600003F0FAF830B1054B0121054A196013689B06FCD508BD00BF24020020000222435B
:200780001410094070B5054604F074FB0B4C294606460B4803F0E2F8FFF7E0FF23686868B7
:2007A0001B689847236868689B6898471128F9D106B170BDBDE8704004F060BBA00100109E
:2007C0002402002038B5044648B9134803F0C4F828B1234605C813430028FBD19BB90F498C
:2007E0000F480B680F4D104C0068002223F4C0530B602A602260C368012098470B4A136851
:200800009B06FCD438BD054A136823F4C05343F40063136038BD00BF24020020041009401A
:20082000A001001080012243000222431410094038B5054604F01EFB04462946054803F00F
:20084000B1F80020FFF7BEFF04B138BDBDE8384004F014BB2402002070B50446B0B1007804
:20086000C0B1A9B10025661804E014F8010F38B1B44205D000F088F9631C05F10105F4D1A5
:2008800000F096F90128FBD0284670BD0546F7E70D46F5E70546F3E710B40B4B0B4C13F851
:2008A000012FFF2A0ED1A342F9D1094A39B11144013801390B78914200F8013FF9D15DF89F
:2008C000044B7047034AF1E7C7FF0100CFFF0100F0120050C8FF010080280BD0812806D13A
:2008E00041B9084A084B1160084619607047064B186870470349044A01230320086018463B
:20090000136070470050094028020020813801289ABF024B18680020704700BF28020020E2
:20092000064B1B6833B1012806D002280ABF044B00231B681846704704F0D2BC2802002037
:200940002850094038B50C4D02202B685B6998472B6802205B6B984701280446064BF7D152
:200960001B684FF40070DB699847044B044A1C6013689B07FCD538BDB801001028200860A9
:20098000282008402DE9F04340F2F275DFF8DC8083B0FFF7D7FFD8F800302A4EDB682A4886
:2009A00098473368294C5B69152098472368DFF8C090274F23F4FE63D9F8002023F00203C7
:2009C00023603D60D36B032098472249D9F800300820122208600092D3F840C01A480221A5
:2009E00003221323E047D8F800301748D3F804C019494FF4E1326023E04740F2011240F2AE
:200A0000013E1649164B142008601968154841F01001196003681449002B0CBF13467346D2
:200A20000B603D60036853B12368326843F0500323601369152003B0BDE8F043184703B0C3
:200A4000BDE8F083B001001000100040381000404410004090200240006CDC023410004091
:200A60002C1000402C02002030100040D0010010B401001008B5064B02201B685B6B98472E
:200A8000012803BF034B186800F00100002008BDB80100106C20084038B50446FFF7EAFF14
:200AA00018B1254A13681907FCD4032C03D0234B1B6803B138BDFFF7DDFFE0B9204D4FF4DC
:200AC00000702B681B6A9847032C2AD01D4B01211D4A196013689B07FCD5032000F0F2F930
:200AE000022000F0EFF9132000F0ECF9BDE83840122000F0E7B9154B15481B68DB689847B3
:200B0000144B15201B685B69984740F2F270124A1249136823F4FE6323F0020313600860EA
:200B2000CCE72B684FF400709B6A98472B684FF400701B6B9847C9E7181000402C020020C7
:200B4000B80100102820086028200840D001001000100040B001001038100040441000407E
:200B600010B504F087F90446054800F08FF9054B00221A6004B110BDBDE8104004F07EB99F
:200B8000C00000202C02002010B50446FFF772FF08B9FFF7F7FE044B2146BDE810401B68D7
:200BA0000248DB69184700BFD00100100010004008B5FFF75FFF18B1024B1868C0F3C0003E
:200BC00008BD00BF1810004038B5FFF7BBFE40F2F2710C4B0C4A1B68116013F0500F10D015
:200BE0000A4C0B4D05E02B681B699847094B1B6823B923680848DB06F5D538BDC0B29847ED
:200C0000F7E738BD401000404410004018100040D00100102C02002000100040034A13682E
:200C200023F00403136030BF704700BF10ED00E070B504F01FF902F08FFA18B1BDE870401B
:200C400004F01CB9814802F087FE0225044648B1636823B19847A84228BF2846C5B2246861
:200C6000002CF5D1FFF750FC794B04461B68002B40F08B8002F004F9002840F09280012DC2
:200C8000014600F0D680022DD8D1002840F0C3802846611EFFF78AFC6C4802F05DFE0625BF
:200CA0000446002800F0B080A368022003B198472369246825EA0305002CF5D1FFF740FD8E
:200CC0006B0705F0060400F1A280002C40F0A78000F0BEF90020FFF775FD5E495E4A0B681C
:200CE0005E4823F003030B601368016843F00F0313608B6939209847594A5A490023136026
:200D0000184613600B6004F0EFF8062C00F08D80554C564D564E2B682368326823F00303D4
:200D2000236053685348032198474C4B1B689B6B98472B6804F012FA4F4A3368002111607F
:200D40004C485B680121984723684C4A012143F00303236011602B6804F032FAFFF7FEFC28
:200D6000FFF7AEFBFFF7ECFC384802F0F5FD044628B1E36803B198472468002CF9D104F01B
:200D80007DF8BDE8704004F079B83D4B1B681B1A022B34D4A3F28F23002BBFF66BAF01238A
:200DA0002EE002F075F80646FFF770FB361A002E7FF744AFFFF732FC324B00EB46211B1B09
:200DC000CB423CD4012085427FF45DAF6FF007031B1BCB4230D404F58034631A31EA230176
:200DE00028BF21460220FFF7E1FB274A136823F00403136030BFBDE8704004F03FB80023E6
:200E00009D4228BF1D4635E7FFF79AFC06241B4B00221A6059E72846FFF7C8FB3CE70F4BF1
:200E200020461B689B69984752E7022004F040FA6EE704F58031D5E704F10801D2E7022DBC
:200E4000C4D0012D7FF4FAAEC0E700BF30020020800224430010094008100940B801001091
:200E60004010094020042243242208402C200940D801001000400340800104430C40094064
:200E80001820094071FDFFFF10ED00E00146014802F064BD300200200146014802F082BDD2
:200EA0003002002010B5054802F052FDBDE81040034B03201B6820211B681847300200202F
:200EC00084010010421C0ED010B50446064B4FF4C0421B6800211B689847044AA3001A4348
:200EE0000023136010BD7047B4010010001A4442024B1868186002F0F5BC00BFE02002408A
:200F000070B51B4B0C461B6805465B68984714F00C0320F0E06222F4EC2207D0042B20D005
:200F2000082B21D00C2B08BF42F4403214F003030DD142F4C04223060D4B2846BDE8704083
:200F40001B6848BF42F480221B6800211847022B04D0012B08BF42F48042ECE742F40052E5
:200F6000E9E742F40032E1E742F48032DEE700BFB4010010064B1B68C340DB074CBF054B2C
:200F8000054B1B6823FA00F000F00100704700BFD020024080200240C020024000B585B0EA
:200FA0000022412302A802920393FFF7EBFB042004F06CF9032810D00420032104F03EF900
:200FC000042004F063F90328FAD10090002106484FF040521C2303F003FF02A8FFF728FCDF
:200FE00005B05DF804FB00BF00A00C4000B583B00022412368468DE80C00FFF7C3FB0120CB
:2010000004F044F9012803D00320012104F016F96846FFF70DFC03B05DF804FB00B583B0BF
:201020000022412368468DE80C00FFF7ABFB012004F02CF9012803D0044B986B03F022FFC3
:201040006846FFF7F5FB03B05DF804FB4800001010B582B041236846002401930094FFF752
:2010600091FB0320214604F0E9F8012004F00EF918B1044B986B03F005FF6846FFF7D8FBE0
:2010800002B010BD4800001070B50388044653B1B3F52F7F03D182290AD0012070BD00235B
:2010A0000380032070BD4FF42F732380012070BD094B0A4E1D69FFF743FB02F011FE02F02E
:2010C000C9FD8021A847002880B2ECDD02F0BCFDF3689847EFE700BFA46E00001472000085
:2010E000024B186800F00100704700BF9C21084010F0030370B506460D4602D1028811057A
:201100001FD403F0B7FE1F4B00301B6818BF0120DB0720D51C4B1D4C1E6023684CF25032AF
:201120002B6003E02368013A2B6014D013F0FF0FF8D018B32878A0F10100B0FA80F04009D3
:2011400070BD438003F096FE0E4B00301B6818BF0120DA0702D468B1002070BD338813F435
:20116000405FD7D003F44063B3F5006F04BF084B1E60CFE703F082FE002070BD03F07EFEFF
:20118000D8E700BF9C2108400010044004100440580200200A4A01E0013A0ED0438803F496
:2011A0004063B3F5806FF7D1428802F44062A2F58060B0FA80F0400970471046704700BF6E
:2011C00020A1070030B583B003F054FE254C0546236819201B6A9847236812201B6A9847E5
:2011E000236819205B699847236812205B6908349847236801205B699847236801205B6B2B
:2012000098470128F9D11849184B194A0860186013689B07FCD5134C16481749226800233D
:2012200003600B60136919209847236812201B699847A5B140F2FF35104B114A1148124906
:20124000002405600C60114801A91A60FFF750FFA0F10100B0FA80F0400903B030BD03F04F
:201260000DFEE7E7B00100102C2008402820086028200840101004601410046000100440A0
:2012800051000706000004601C1004400100060410B586B00021142201A805F01FFD40F6CF
:2012A0000A0215499DF811300C68012161F3030301A8694605948DF81130ADF80420FFF788
:2012C00017FF012802D0002006B010BD0B4801E00138F9D0BDF8063003F44063B3F5806F08
:2012E000F6D1BDF8060000F44060A0F58060B0FA80F0400906B010BD6C02002020A1070027
:2013000000B587B00021142201A805F0E7FC40F609029DF81130012161F3030301A869461E
:201320008DF81130ADF80420FFF7E2FE012803D0C0B207B05DF804FB104801E00138F8D095
:20134000BDF8063003F44063B3F5806FF6D1BDF8063003F44063B3F5806F03D0002007B0E4
:201360005DF804FB064B1A782AB9064A0599012011601870DDE70120DBE700BF20A107001D
:20138000861100206C02002030B587B003F072FD314C0546236819205B699847236812209E
:2013A0005B6998472D4B1B68DA071AD52C492D4A00230B6002A819461360102205F08EFC18
:2013C00040F60D029DF81530012161F3030302A801A98DF81530ADF80820FFF789FE0128E1
:2013E0002CD0FFF78DFF2048204B00240121204A0460196013689B07FCD51E4C012023680B
:201400009B699847236801205B6B98470228F9D1114C192023681B6A9847236812201B6ADD
:201420009847236819201B699847236812201B6998470DB903F022FD07B030BD0E4A01E0D1
:20144000013ACED0BDF80A3003F44063B3F5806FF6D1BDF80A30C4E7B00100109C2108406C
:2014600010100460141004602C2008402820086028200840B801001020A1070008B503F04B
:2014800081FF052803460BD003280DD018B101280FD0002008BD094B03221A60012008BDE4
:2014A000064A0120136008BD044B02221A60012008BD024A0521116008BD00BFD021084010
:2014C00008B5FFF77FFE012803D0FFF75DFF002008BDFFF7DDFE0128F7D108BD08B5FFF76F
:2014E0000FFFFFF7D5FE012802D0FFF74DFF002008BD00BFF8B5174B174A19781268174B57
:20150000002914BF00241C46D30700D4F8BD03F0B1FC0646124A134B1348144F144D002100
:201520003B60046011602B6819201B6A98472B6812201B6A98472B6819201B6998472B6820
:2015400012201B69984706B1F8BDBDE8F84003F095BC00BF881100209C2108400000C080AC
:2015600010100460000040801410046018100460B0010010084B1B7833B1002002460749D0
:20158000074B0A6018607047064B0749074A002814BF18460846F2E78811002010100460B1
:2015A000141004600800C0800200C0800000C080044A054B1178054A002918BF00231360CD
:2015C000704700BF881100200000C08014100460014B1868704700BF5802002038B50B461A
:2015E0000446154600211A4605F078FB637B012262F303032580637338BD00BF014B18600E
:20160000704700BF6002002038B5064B064C1D6806484FF43441064A0023256001F01CFBB7
:20162000012038BD043004403402002038020020A5160000164B1B68DBB170B59B6898473A
:2016400008B9002070BD03F015FC124B124C1D680646002115F1804022684FF0000341F107
:201660000001994208BF904209D325601EB1012070BD0020704703F001FC012070BDFEF76D
:2016800043FF064A06491368086001331360ECE76002002004300440340200205C0200203E
:2016A0006402002070B5134B1B68B3B19B689847D8B9114D2B6A984701280ED1FFF7BAFF3E
:2016C0006B6A0446984744B1BDE870400B484FF434410B4A002301F0BFBA08488021084A92
:2016E0000023BDE8704001F0B7BAFFF7A3FF0446E9E700BF60020020A46E000038020020B1
:20170000A5160000F8B5224C2368002B3DD09B680646984700B3FFF78DFF1E4BB6F1404F2E
:201720001F6825D822681C4BB2F90C401968E517641A65EBE1750022A41945F10005A018CA
:2017400045EB0701090241EA106143F609520023000204F043FFF8BD104D2B6A9847FFF73F
:2017600069FF6B6A98470B4BB6F1404F1F68D9D9FEF7CAFE0A4B1B68C3F17E4303F5720311
:20178000C34248BF07F1FF37CCE71846F8BD00BF600200205C0200206C020020A46E0000EA
:2017A0006402002010B5104B1B68DA0704D4FFF709FD012800D010BD0C4C23685B0204D46D
:2017C0000A4B6FF000421A6010BD094B012209481A7001F017FD6FF480032360034B6FF05F
:2017E00000421A6010BD00BF9C2108401010046087110020D400002008B5124B1B68D907EF
:2018000007D4114804F004FBFFF7DCFC012800D008BD03F02FFB0D4B1A6812020BD40B4BD5
:201820001A6812F00A0F1CBF6FF00A021A60BDE8084003F023BB6FF400021A60044801F071
:20184000E1FCECE79C2108405C6E000010100460D4000020014B1878704700BF8A11002084
:2018600008B5FFF73DFC30B1034B5888A0F10200B0FA80F0400908BD8402002008B5FFF759
:201880002FFC30B1044B5B88022B0CBF0120022008BD022008BD00BF8402002070B582B067
:2018A000FFF71EFC40B9144801A9FFF721FC01280AD0002002B070BD0F4C6388022B08BFCA
:2018C0000120F0D102B070BDFEF71EFE6FF03F05094C2D1A03E0FEF717FEC54209D560883D
:2018E000054E0228F7D1A0F10200B0FA80F04009E8E77088F7E700BF8402002008B503469D
:20190000B32994BF0A46B4220248194605F070F9002008BD0603002030B589B002A818215C
:2019200040F60202FFF75AFE124A9DF81830126803F0F8039588104C6FF3C303012202A810
:2019400001A9ADF81A508DF8183007948DF81620FFF7CEFB012802D0002009B030BD02A881
:20196000FFF718FCA0F10100B0FA80F0400909B030BD00BFE4000020FC00002008B5FFF730
:20198000CBFF012801D0002008BDFFF787FFC0B208BD00BF70B50E4D0E4E2C68002006E0B6
:2019A0002379022B06D024682B68A3420ED02379032BF5D133780120002BF4D1064801F01B
:2019C00021FC24682B680120A342F0D170BD00BF7802002088110020D400002030B583B0B9
:2019E000FFF7F6FD0446FFF77BFB08B903B030BD0A4801A9FFF77CFB0128F7D1FEF784FD17
:201A00006FF03F052D1A03E0FEF77EFDC542EDD5638803F44063002BF6D0E7E70100010476
:201A20000B2807D00C2801D001207047042A11D002207047082AFBD10029F9D0094B013959
:201A4000A3F1080013F8012D834201F8012FF9D1002070470029EBD0034B00201B680B60E2
:201A6000704700BFB40200206802002000B585B0FFF736FB10B905B05DF804FB002102A8E2
:201A8000082205F02BF942F2034302A801A9ADF80830FFF72DFB0028EDD09DF90A308033D2
:201AA00003D0002005B05DF804FB9DF80C0000F00C00A0F10400B0FA80F04009DBE700BF14
:201AC00030B583B0FFF70CFB90B31B4C6388022B2ED1FEF719FD194D2D1A03E0FEF714FD8F
:201AE000C54203D5FFF7C2FF0028F7D101A91448FFF7FEFAFEF708FD6FF03F052D1A06E0A2
:201B00006388022B07D1FEF7FFFCC54203D5FFF7E7FA0028F4D142F202426388934207D033
:201B200042F20740181AB0FA80F0400903B030BD012003B030BD00BF8402002000FEFFFFD3
:201B4000010001040B2801D001207047082A01D0022070470029FBD0104B083103F1080043
:201B600011F8012D03F8012F8342F9D110B5FFF7B7FA88B10A4B5B88022B0CD1FFF7A0FFF8
:201B800001280CBF00240324FFF788FE01280CBF2046032010BD002010BD00BFAB020020C7
:201BA0008402002030B585B0FFF79AFA18B1144B5D88022D02D0FF2005B030BD42F2034491
:201BC00002A80021082205F089F89DF80C3065F301038DF80C309DF80C00002100F00303F4
:201BE000022B4FF00802E7D102A805F077F802A801A9ADF80840FFF77BFA0028EBD1DAE758
:201C00008402002008B5FFF725FE012809D0FFF767FA30B1074B5B88022B02D1FFF726FFBE
:201C200008B1002008BDFFF7BDFFFF28F9D0C0F3801008BD8402002010B5FFF70BFE0128C9
:201C40002BD0FEF761FC174C241A03E0FEF75CFCC44203D5FFF70AFF0028F7D1FFF730FF74
:201C6000FFF792FBFFF7F4F90F4B1048197900220229428013D00E4B1A79022A04BF0022CB
:201C80001A710C4B1A79022A04BF00221A710A4B1A79022A04BF00221A71012010BD1A7136
:201CA000E9E700BF00FEFFFF5804002084020020BC030020E404002070050020F8B5FFF758
:201CC000C9FD012832D0FFF791F9FFF709FA48BB1C4A1D481D491E4B92F805C090F805E041
:201CE0004F795E790125842465F3830C65F3830E65F3830765F3830682F805C0106080F8BD
:201D000005E00160C480D480CC804F710B601A60DC805E71FFF782F9FFF7D2FBA84207D0D4
:201D20000020F8BD0B4B5B88022BD1D10120F8BDFFF7E0FBFFF7F0FD0128F1D1BDE8F84074
:201D4000FFF7ACBD58040020BC030020E4040020700500208402002070B584B0072800F20C
:201D6000AA80DFE800F01E63252E315E6E04534C2177FFF7B5F908B36388022B1ED1FFF71A
:201D80009FFE01280CBF00240324FFF7A7FB01287DD0FFF783FD01280CBF2046032004B0B2
:201DA00070BD01297CD0002974D0022004B070BD424C6186FFF794F90028DDD1002004B06E
:201DC00070BD3E4C2186D4E731F00702EDD13B4C3B48237EC1F3400561F30003DBB243F047
:201DE0000203067865F38203657EC1F3800103F0870362F3C71362F3C7158E42657623764A
:201E00000170B6D104F1180102222E4804F0F0FE2D4803A9FFF76CF900280CBF032000208E
:201E2000BDE731F00103C0D1C8B2B8E7A1F10B030F2BBAD8214CC9B2A37B8B42BED0A1734E
:201E400097E701F115031A2BAFD8204D0C2455F834301E4899424FEAC40228DD14F1FF3463
:201E6000F5D2FFF73DF9002899D003A80021042205EBC40404F032FFA288102303A802A95C
:201E8000ADF80E20ADF80C30FFF732F996E7FFF7D1FB7EE70191FFF7CFFE019908467EE727
:201EA000FFF70CFF012814BF0320002077E7084B02441A60D5E7012071E700BF84020020D7
:201EC000881100207202002070020020DC6E0000E400002099B170B50C4684B0172800F2AF
:201EE000B680DFE800F012AFAAA58D0E837D47413CB4B4B438342F2BB427231F0E890220CE
:201F000070470020086004B070BDFFF7E9F830B1594B5888A0F10200B0FA80F040092060EF
:201F20000020F0E70A230B600020ECE720230B600020E8E703230B600020E4E705230B6073
:201F40000020E0E76FF014030B600020DBE71A230B600020D7E70B230B600020D3E7474B4C
:201F600000201B780B60CEE7454B00201B785BB20B60C8E7FFF7B4F800286AD03E4B5B88B4
:201F8000022B08BF002664D1082202A8002104F0A5FE9DF80C30022262F383038DF80C30D5
:201FA00042F203450AE002A804F098FE02A801A9ADF80850FFF79CF8002850D09DF80C20A3
:201FC000002102F00C02082AEDD0002E50D19DF90A3013F1800F23600CBF0320002092E735
:201FE000254B002093F91C300B608CE7254B00201B681B680B6086E718230B60002082E7FE
:2020000000231D4A0B60137E03F001030B60127E520744BF43F002030B601B4B187800282B
:202020003FF471AF0B68002043F004030B606AE7114B00201B8E0B6065E70F4B00205B8E85
:202040000B6060E70C4B00209B7B0B605BE7012059E7FFF733FE012805D1064694E78023A3
:202060008DF80A3026B96FF07F03236003204AE7FFF7E2FDABE700BF840200208911002084
:20208000F6010020E400002088110020F0B589B00746FFF725F8002842D0304B5B88022B69
:2020A00008BF00263CD1FEF72FFA6FF01F052D1A03E0FEF729FAC54239D5FFF7D7FC01283C
:2020C0000446F6D0002832D1182102A842F60142FFF784FA224BFFB28DF817700693049498
:2020E0009DF81430012023F00F038DF81430FFF741FA02A801A9FEF7FBFFF0B1194C2278E4
:2021000000E022B3BDF80A3003F44063002BF8D0BDF80A40A4B2B4F5105418BF01240DE043
:20212000FFF7CCFD012806D0012009B0F0BD5EB9022009B0F0BD0646B5E70124FFF738FA86
:2021400046B9204609B0F0BDFFF776FDF0E7FEF765FDD4E7FFF770FD2046E6E78402002026
:20216000060300208811002010B50C46B32C014694BF2246B422044804F03AFD2046BDE82D
:202180001040FFF783BF00BF0603002010B5FFF761FB012825D0FEF7A3FFD8B1194B5B8833
:2021A000022B17D1FEF7B0F9174C241A03E0FEF7ABF9C44203D5FFF759FC0028F7D1FFF740
:2021C000F1FCFF280DD000F0030010F1FF3018BF012010BDFFF772FD0128044603D0FFF785
:2021E0002BFD012010BDFFF7DDFCFF2805D000F0030010F1FF3418BF0124FFF71DFD204665
:2022000010BD00BF8402002000FEFFFF2DE9F047324F82B0814688463E68FEF775F9304D75
:202220002D1A03E0FEF770F9C54208D53479022CF8D0032C06D0002002B0BDE8F0873479EF
:20224000032CF8D13968DFF894A00E7AF6B2062E02DDB51F454508DD0B680020CAF80030CF
:202260000871087202B0BDE8F087484609312A4604F0BEFCDAF80010F31CCB5CDFF86C90CC
:20228000321D89F800308B5C0536DFF8648003F03F030422314401A888F8003004F0A8FCA0
:2022A0000198FFF72FFA0F4B0F4A1B7810603BB13B6800221968284639601A721A71BBE7BE
:2022C00099F80010042049B289B201F05FFD98F80010204601F05AFDEAE700BF8002002036
:2022E000FAFEFFFF8811002068020020F6010020891100202DE9F84F4A4E4B48FEF7C6FD94
:20230000FFF7BCF8304600218C2204F0E7FC00218C22464804F0E2FC00218C224448454CDC
:2023200004F0DCFC00218C224348002504F0D6FC424F434B2946204680221E603E607D60FD
:2023400004F0CCFC667E237E0222DFF8008162F3010643F00703617B404642F2020965F32E
:20236000C71603F08703667642F6010A012665F3C71366F303011E4694F81BB094F80CC01B
:2023800094F837E00BF0800B4BF06F0365F3030C4FF0010B20F8029BDFF8B4906BF3030E76
:2023A0002761A4F800A084F80CC04FF01A0B4FF0A60C4FF0B10AFF27E37684F81CC084F86F
:2023C00037E06173658004F118016560A560A577E57725626562A56384F80EB084F80FA022
:2023E000C4F814902676A77604F002FC04EB0B01012208F1040004F0FBFBFFF75FFC012853
:20240000044603D02C462046BDE8F88F0D48FFF7F5F8FFF7F9F829460B4800F0D3FE204693
:20242000BDE8F88F58040020E8000020BC030020E404002084020020700500207802002030
:2024400080020020446F0000D4000020700200204804002008B500F08BF880B208BD00BF4F
:2024600000F010B938B50C4D04202B685B6998472B6804205B6B984701280446064BF7D11B
:202480001B6840F20140DB699847044B044A1C6013689B07FCD538BDB801001028200860AE
:2024A00028200840034B1B68002B14BF01200220704700BFFC050020F8B503880446002B36
:2024C0002ED0B3F5847F05D1184B1B788B4205D00120F8BD002303800320F8BD144D2B689D
:2024E00073B1144B144A1B6812685B680220174698470026301847F100012B6898472E6036
:202500000E4B40F201401B689B6A98470C4B01210C4A196013689B07FCD50B48FEF7BCFC52
:202520004FF4847323800120F8BD00BFF7010020FC050020CC01001004800240B801001084
:2025400028200860282008402801002008B5064B04201B685B6B9847012803BF034B1868DF
:20256000C0F34000002008BDB80100103C20084070B5274B1B689BB1264C0023224612F8A9
:20258000011B29B90133042BF9D10020014670BD214A002502EBC302E55492E8030070BD57
:2025A000FFF7D4FF00282FD01C4A1D4B1268134073B91C4A01211346116018680028FCD19D
:2025C00002464FF4807102F073FC174B01221A6002F050FC0646114A1368DB07FCD5134BAE
:2025E000134A1B6814685B680220984723460022141843F1000516B12046294670BD02F010
:202600003DFC2046294670BDFFF72CFFCCE700BFFC050020000600200002002008800240B9
:2026200001000080F09F0240A8025042CC0100100480024038B50E4D00240E4A2C6013689E
:202640000D4923F00103096813604B6931209847204622464FF4807102F02AFC0122074BB6
:202660002A6019782246BDE83840054800F07EBDA80250420C800240B0010010F70100205F
:202680003C01002010B5074C2378802B00D010BD00F0EAFC207000210348BDE8104000F02B
:2026A00091BD00BFF70100203C01002008B502F0E1FB003018BF012008BD00BF80F3108856
:2026C000704700BF827A044B03EBC2035B68C01AB0FA80F04009704704060020F0B5474970
:2026E000837A85B001EBC303D3E84F2F12F0FF0F09D10124C3E8424F1346BFF35F8F3BB18D
:20270000032005B0F0BD0123BFF35F8F002BF7D10446827A3A4B01EBC20148601B68C078A0
:20272000DB6B384F9847384DA37A3A6805EB0313526958689047A37A3A6805EB03135868CC
:20274000536B9847012806462E4A2F4BF3D1A17A126803EB0113D269986890472B4B2C4A1C
:202760001E6013689B07FCD5A37A03201B01EA582849536923F00F035361A37A1B01EB58CD
:202780001862A37A0A6826891B01E85817683EB1237A002B2CD0637A002B14BF03260226C7
:2027A0006168082332468DE80A001B490023B847A37A134A26781B01E85813686178A278C6
:2027C00000965E6C4FF0FF33B047A37A114E1B01EA58536843F002035360A37A32681B01DE
:2027E000E85803A9136998470028F6D105B0F0BD637A002B14BF01260326D1E70406002034
:20280000B4010010B8010010706F00002820086028200840C4010010006CDC0270B5214D59
:20282000837A05EBC3025268904201D0042070BD1D491E4A096802EB031304460A6A986838
:2028400090471B4B01221A601A4A13689B07FCD5194E607833689B6B9847336860784FF4D7
:2028600000519B6998473368A0789B6B98473368A0784FF400519B699847336820789B6B29
:202880009847336820789B694FF400519847A37A002005EBC3035860A37ABFF35F8F05F84A
:2028A000330070BD04060020B8010010706F00002820086028200840B40100102DE9F04F8C
:2028C000344C857A85B004EBC5046468A04203D0042005B0BDE8F08F1F462F4BDFF8C49004
:2028E0001B6809EB051504465B6B686890460E469847012803D0052005B0BDE8F08FA37A47
:20290000264909EB0312D26809681142F3D00E9A0F9902EB010AC2455246B8BF4246002A6E
:20292000019235D0D8BF03AD26DDDFF874A04FF0000B03ADD845CCBF16F80B10002103914A
:20294000DAF800201B0159F8030053689847A27ADAF800301201DB6859F802002946984766
:202960000E9B5B45C4BF039B07F80B30019B0BF1010B9B45A37ADDD1094E00E0A37A326876
:202980001B0159F803002946136998470028F5D100209EE704060020B80100107820084097
:2029A000C4010010706F000010B54F4CFDF7FCFBFDF720FD00F032FC00F05EFB4B480021EC
:2029C00000F000FC00F00EF9FDF794FE00F086F900F06AFCFDF726FC01F068F801F000FA77
:2029E00000F032FC2368022B11DCFDF731FC404800F0A2F8FDF78CFE00F058FB0446FDF7E2
:202A00009FFE14F0FF0FF7D1FDF78CFCF4E73949394A3A4803F0FCF9394803F0F9F9236888
:202A2000022BE2DD3349344A344803F0F1F9354B3548196803F0ECF92368022BD5DD2D4921
:202A40002D4A2E4803F0E4F9304B3148196803F0DFF92368022BC8DD2649274A274803F0DA
:202A6000D7F92C4B2C48196803F0D2F92368022BBBDD2049204A214803F0CAF927484AF66B
:202A8000CD3103F0C5F92368022BAEDD19491A4A1A4803F0BDF922481A2103F0B9F923689E
:202AA000022BA2DD1349144A144803F0B1F91D4B1D48198803F0ACF92368022B95DD0D4931
:202AC0000D4A0E4803F0A4F9184803F0A1F92368022B8ADD164800F00BFA2368022B84DD41
:202AE000144803F095F980E76C0100205C0100209C720000886D0000906F0000786D0000A1
:202B0000986F000040720000D06F000030720000E06F000014720000EC6F0000F86F000084
:202B200014700000801100203470000044700000C41100201070000010B50446006830B13B
:202B4000002100F03FFB54F8040F0028F8D110BDF0B5038883B005465BB14A2B04D1882958
:202B60001BD0012003B0F0BD00230380032003B0F0BD194800F0F0FE044630B1201DA16810
:202B800000F064F92468002CF8D1144B01221A704A2301202B8003B0F0BD0F48019200F0E8
:202BA000DBFE04460028F3D0019A031D9A4205D02468231D002CEBD09A42F9D1064821468D
:202BC00000F0F0FE064E6269A369376832600BB1E06998473760DBE7140600208B11002088
:202BE0002006002010B5064B002406481C7000F0AFFE2146BDE81040034800F0E3BA00BFEB
:202C00008B110020140600204C01002070B504460D48049D0078A261E361656130B9A1607D
:202C20000A482146BDE8704000F098BE084D094B2E68201D2B6000F009F92E602146BDE8AD
:202C40007040024800F08ABE8B11002014060020200600204C01002010B5044C82B02468C6
:202C60000094FFF7D3FF02B010BD00BF2006002010B50A4B04461B783BB9C360036121469B
:202C8000BDE81040064800F08DBE043000F00AF92146BDE81040024800F084BE8B110020FB
:202CA0001406002038B50B4B1D785DB904460A4800F052FE10B90AE0006840B18442FBD172
:202CC000002038BD0430BDE8384000F0D3B8012038BD00BF8B11002014060020704700BFD2
:202CE00010B50E4C2368B3B1FDF7D0FB22685168136892681944091A4AB192E818002344DB
:202D00001B1A9268994228BF1946002AF5D1044B0844186010BD024A136010BD18060020C9
:202D20001C0600202DE9F041038805467BB1592B08D1872912D0822920D059232B80012036
:202D4000BDE8F081002303800320BDE8F081254A0120136059232B80BDE8F081214F3B682B
:202D6000002BEAD0D9688A4203D024E0D9688A4220D19B68002BF9D13B60DEE7194F4FF08D
:202D800000083C68002CD8D0002604E0A3682646002BD2D01C46204600F078FA0028F5D04E
:202DA000E0688821224600F0E1F978B10E4800F029FAEBE73B6099680029BED0C868824245
:202DC0000BBF89680B4699608968F5E7E060A3682EB1B360C4F80880FFF782FFD1E73B60D6
:202DE000F8E700BF180600205C01002010B50446104800F007FA1049E3680A684BB142B11D
:202E000094420FD0134601E09C420BD09B68002BFAD10A4BA2601B680C60E360BDE8104093
:202E2000FFF75EBF054B1B68E360BDE81040FFF757BF00BF5C0100201806002020060020A8
:202E4000014800F0DFB900BF5C01002010B5044600F006FA2046BDE81040FFF7C7BF00BFD0
:202E600010B5044600F004FA2046BDE81040FFF7BDBF00BFC068B0FA80F04009704700BFC8
:202E8000024B1868003018BF0120704718060020024B186808B1024B186870471806002000
:202EA0001C06002010B5114B04461A68904218D05AB19368834208BF13460AD02BB19A6886
:202EC000A24206D01346002BF9D10023A360E36010BDA2689A60FFF703FF0023A360E3604F
:202EE00010BD82681A60FFF7FBFEEEE718060020D0B170B5054601260024C4B1E30709D526
:202F00000D48297802F084FF082E0CD0013601350134F2E7094802F07BFF0748297802F01A
:202F200077FF082EF2D170BD054802F071BF2978014802F06DFFE9E78C700000887000007A
:202F4000787000002DE9F843DFF8A480274DD8F800702E68874247D077B33B4601E0002B5C
:202F60003BD01B689842FAD133B3837B8946044623B3002383736FB1BC424FF0870106D077
:202F8000BB7BDB0703D53846224600F033F83F68002FF1D1A3683BB14C4505D02C6004F1CA
:202FA0000C00832100229847D8F80000844208D12368C8F800302E60BDE8F8833846844284
:202FC000F6D00028F7D00368A34208D0002BF2D01A68A24204D01346F8E7BDE8F88303464C
:202FE00022681A602E60E7E73B46BDE7200600202406002070B586687EB104460A480223B9
:203000000460A37304F10C000D46B0470238012804D9832D02D00123A37370BD20462146F5
:20302000BDE87040FFF78EBF2006002070B50C4A0C4B146800251D7084B1012601E02468E9
:2030400064B1E37B002BFAD0A673E573204682210022FFF7CFFF2468002CF2D170BD00BF41
:20306000240600208E110020024B1878421C1A70704700BF8F11002070B407480749084A37
:203080000023084D084C8A2603700B6013602E70237070BC704700BF8D1100202406002088
:2030A000200600208F1100208C1100202DE9F041244D2B780BB1FFF7B9FF234E3378D3B1E8
:2030C000DFF890E0214F9EF80020013B02EB420189007C180132A068DBB202F01F0233707C
:2030E0008EF800207F5CD4F8048098B1812F06D0827BD20705D428781844BDE8F08101234B
:20310000837339464246FFF775FF337828781844BDE8F0810E4A146834B9ECE7A37BD907F9
:203120000AD42468002CF0D02B78002BF6D0FFF77DFFA37BD907F4D5204639464246FFF709
:2031400059FFEEE78E1100208D11002028060020240600208C110020024A034B10781B78BB
:20316000184470478D1100208E110020F0B40C4D2C78202C11D00B4B0B4E1B78671C2344C5
:2031800003F01F0303EB43039B00F418A06062602F70F1540020F0BC70470120F0BC704792
:2031A0008D1100208C1100202806002038B5837B034CDB07256801D5FFF71CFF256038BD3C
:2031C0002006002070B404460D4D2868A04206D038B1034600E023B11B689C42FBD170BC5A
:2031E0007047002CFBD0012600232060A673A3810A4620462C60812170BCFFF7D7BF00BFBF
:203200002406002038B1837B013B012B03D8024A01231370C37370478E110020FDF76EB980
:2032200010B5084C206858B100224368816822609847236823B1BDE810401868FDF760B9EC
:2032400010BD00BFA8070020034A04499079D37903EB00230B807047C4110020801100202B
:2032600010B541600446FDF711F9206010BD00BF10B50446FDF70AF922686168C2F1010384
:203280001844884284BF5218226010BD10B50446FDF7FCF823686268C3F1010318448242E8
:2032A0002CBF0020012010BD00B50B4B83B001A90A4A99421160019388BFCD2005D95A1C71
:2032C00001921870019B8B42F9D305480021FFF779FF03B05DF804FBD6110020AC070020E1
:2032E0007001002038B5134CFDF72AFA2378124DCD2B08D0AC4202D316E0AC4214D014F878
:20330000013FCD2BF9D1AC4202D30DE0AC420BD014F8013FCD2BF9D0FDF712FAAC420648E9
:2033200004D2001B80B238BDFDF70AFA4FF6FF7038BD00BFD61100200050002070B50388EE
:2033400004465BB1902B05D11848FFF793FD70B9012070BD00230380032070BD13484FF495
:20336000A061FFF773FD90232380012070BDFFF7B9FF0F4D0F4B06465D1BADB2A8420DD9EB
:203380000D4B1B68002B09DD0C490D4A0D4802F03FFD31462A460C4802F03AFD0348FFF76D
:2033A0005FFD90232380012070BD00BFB0070020D6110020005000206C01002028710000DA
:2033C0002C710000786D00003471000010B5044690F84C308021013384F84C30203023462D
:2033E000054AFFF739FC054B2246BDE8104019780020FFF7BBBE00BFCD330000D3110020C3
:2034000070B5038804464BB1CB2B03D1822909D0012070BD00230380032070BDCB23238093
:20342000012070BDFFF742F9BFF35F8F104B00221E681A60BFF35F8F0E4DFFF73FF9286837
:2034400020B9EBE755F8040F0028E7D090F8453026FA03F3DB07F5D5FFF724FC0028F1D0C4
:20346000286802210346044AFFF7F6FBEAE700BFCC070020B4000020B9340000034A13680F
:20348000034303481360FFF7BDBE00BFCC0700208001002010B5044690F84500FDF76AFD2D
:2034A00010B994F8440010BD012806BF94F8440080F00100002010BD70B50446FFF7F2FB38
:2034C00000B970BD04F120052846FFF7EBFB06462046FFF7DFFF01280ED00028F1D1002EFD
:2034E000EFD12846FFF7C4FB0A4B30462246BDE870401978FFF73ABE002EE2D00026234673
:20350000284684F84C607E21034AFFF7A5FB034BEBE700BFD2110020CD330000D4110020AC
:203520002DE9F843FFF7A0FD244B254C1870FFF79BFD244BDFF8A0801870FFF795FD224DCC
:203540002368224A00212870C8F80810C8F8042053B3DFF888901E4F0126D9F800209D6C7C
:20356000926B93F845009047236845F08C05294693F84500FDF7C4FC2268D9F8003092F84E
:20358000450006FA00F23A601B6B98472368D8F8082093F8451054F8043F06FA01F10A43C4
:2035A000C8F80820002BD8D10A480021FFF70AFEBDE8F843084800F08FB900BFD4110020B2
:2035C000B4000020D2110020D31100207D340000E020024080010020C0070020B4010010D0
:2035E000F8B5048805466C2C0CD07E2C1BD01CB1002303800320F8BDFFF736FD1E4A1F4BF8
:2036000010701C601D4C264604E00A2813D023687E2B2BDD1A4800F087F9431CF5D16C231E
:203620002B800120F8BD852901D00120F8BD134C00232360E6E7114C124F23680E4900261C
:2036400003F1010E3A4609783046FE54C4F800E0FFF78CFD0C4B324618688521FFF786FD15
:203660000028E5D17E232B800120F8BD05495A1CC8543260CEE700BFD5110020D80800205E
:2036800050080020580800202006002008B505480549802200F040F9BDE808400348002170
:2036A000FFF790BD50080020D00700209001002010B1837A012B01D901207047FFF70EB84F
:2036C00010B1837A012B01D901207047FFF7A6B810B50446FEF7F6FF08B9042010BDE178F6
:2036E000024A01238B401360002010BDA0200240C178034A01238B4013600020704700BFAF
:203700009020024010B584B08DF80F1010B1827A012A02D9012004B010BD0446FEF7D2FFA5
:2037200010B9032004B010BD00232046009301930DF10F010122FFF7C1F8ECE780B170B563
:20374000847A82B0012C02D9012002B070BD044615460E46FEF7B6FF20B9032002B070BDB3
:20376000012070470023204631462A4600930193FFF7A4F8E9E700BF80B170B5857A82B032
:20378000012D044602D9012002B070BD16460D46FEF798FF20B9032002B070BD01207047E8
:2037A0000021009620462B4601910A46FFF786F8EAE700BFF0B40E4C0E4F22460E4E002353
:2037C000012540FA03F1C90706D5517851B114F8131005FA01F1316002320BB1F0BC70471B
:2037E0000123EEE714F8131005FA01F13960F3E7D86D000090200240A0200240F0B40E4C06
:203800000E4F22460E4E0023012540FA03F1C90706D5517851B114F8131005FA01F13160E9
:2038200002320BB1F0BC70470123EEE714F8131005FA01F13960F3E7D86D0000A020024062
:203840009020024038B5074D074C2B682078DB6B98472B68A078DB6B9847BDE83840032082
:20386000FFF7CCBFB4010010D86D0000C20705D5074A01231178074A8B401360830705D529
:20388000034A01239178034A8B401360704700BFD86D0000B020024038B50E4D2878FDF77A
:2038A00069FB6B7883B1B0FA80F46409A878FDF761FBEB7823B108B944F00204204638BD05
:2038C0000128F9D0204638BDA0F10104B4FA84F46409EBE7D86D00000146014800F03EB8E5
:2038E000DC08002038B50546074800F035F8044640B1A068284002D0636803B198472468B9
:20390000002CF6D138BD00BFDC080020014800F01FB800BFDC0800200023013A01600271F7
:2039200043718371704700BF0346807959791A79091A114208D010B4411C1C680A40205C09
:203940009A715DF8044B70474FF0FF30704700BF00230360704700BF00687047026842B1A5
:20396000914203D11BE099420ED01A461368002BF9D100230B6002680AB90EE01A46136898
:20398000002BFBD1116070470B68136000230B6000230B600268002AF1D1016070470B6825
:2039A0000360F3E7026842B18A4203D10BE0994204D01A461368002BF9D1704719681160BA
:2039C00000221A607047134612680260F8E700BF03682BB100201B680130002BFBD17047F8
:2039E0001846704700B10068704700BF10B5044600216288406803F071F923886288A06867
:203A000002FB03F2BDE81040002103F067B900BF30B44588BDB141680B7863B14A1C0023E4
:203A200003E01478114601322CB10133AB42F8D1002030BC704701220A700288806830BC08
:203A400003FB020070472846F3E700BFF0B44588074682686DB18A420ED006880023324411
:203A600002E0914209D022460133AB4202EB0604F7D1FF20F0BC704700237A68D05C002895
:203A8000F8D00138D0547A68F0BCD05C704700BF83688B4208D84288008800FB02308142F7
:203AA0002CBF0020012070470020704708B50448FFF79CFFBDE808400248FFF797BF00BF70
:203AC000AC010020A001002038B50F48FFF7A0FF044688B10D48FFF79BFF0546206060B13B
:203AE00000F04AF805F19C01A5F8800005F1820000F026F9204638BD38BD21460248FFF766
:203B0000A5FF284638BD00BFA0010020AC010020016801F182009C3100F012B910B50446DD
:203B200007482146FFF7B4FF00B910BD21680548FFF78CFF2146BDE810400148FFF786BF69
:203B4000A0010020AC01002010B5044609482146FFF79EFF00B910BD2468B4F880102046C9
:203B600000F0CEF804F1820004F19C01BDE8104000F0F8B8A0010020F8B50E4D0E4C2A782C
:203B800023881344802B01DD0020F8BD06460B4F394603F02DF80A4B29781B78701819441A
:203BA000C9B23944228803F023F8287823881844F8BD00BF9011002082110020700E002028
:203BC00084110020F0B4114B114F1B783E78114A33441288DBB213449BB21A18802A12DC20
:203BE000013B9BB21AB2002A08DB0B4C2518A15C013B9BB2A9541AB2511CF8D1304438702E
:203C0000F0BC012070470020F0BC7047841100209011002082110020700E0020084A1388E9
:203C200083420BDB10B4074C80B221881B1A13800844208001205DF8044B704700207047E0
:203C40008211002084110020014B1880704700BF82110020044B054A1B7812780448134491
:203C6000DBB21844704700BF8411002090110020700E002000487047700E0020014B188848
:203C8000704700BF82110020054A064B10781B78054A03441088DBB2184480B2704700BF81
:203CA00090110020841100208211002038B5094D094C00211A22094803F010F828462146C5
:203CC00000F0A0F805F108002146BDE8384000F099B800BF9811002080710000A811002047
:203CE00004480549054A002303800B801370FFF7DDBF00BF841100208211002090110020AD
:203D0000802928BF802170B50C4606460849094A094D00230B8013702B80FFF7C7FF3146A6
:203D20002246064802F064FF2C80204670BD00BF841100209011002082110020700E0020B3
:203D400010B50C461A22054902F052FF2046BDE810400349102202F04BBF00BFA811002012
:203D600098110020034610B50C461A221946054802F03EFF2146BDE810400348102202F038
:203D800037BF00BFA811002098110020024B23F810100120704700BFA8110020014B33F85D
:203DA00010007047A811002008B5044B0D3803EBC00000F027F8012008BD00BF98110020E7
:203DC000024B0D3803EBC000704700BF981100200148024900F01AB8A0110020807100004C
:203DE000054B10B51B689847044B5B689847BDE81040034B5B681847A46E0000147200005E
:203E000030720000082202F0F3BE00BF08B5082202F0BCFEB0FA80F0400908BDF8B5FCF719
:203E200035FB104F06463C4600250D20FFF7C8FF2146FFF7EBFF103420B90135102DF4D17A
:203E40000020F8BD0720FFF7A9FF07EB05152B7B8342F5D1A868301AB0F5206F8CBF002092
:203E60000120F8BDF00E0020F8B5194F00243D460D20FFF7A5FF2946FFF7C8FF18BB013497
:203E8000102C05F11005F3D112480F24013C07EB041600E0013C3146102202F0A9FE30466C
:203EA000103E002CF6D10720FFF778FF3873FCF7EDFAB8600D20FFF783FFBDE8F8400146C7
:203EC0000348FFF79FBF002CEDD02846DEE700BFF00E0020E00F0020844618B10846114603
:203EE0001A466047704700BF30B591B0FFF7B2FE0446FFF7C3FE6A460146204600F090FAA1
:203F0000C0B30446FFF78AFEA0B39DF810100C20FFF73CFF08209DF81310FFF737FF9DF860
:203F200017308BB1BDF81C5000F0E6F8854205D04FF6FF73BDF81C209A421BD19DF8170057
:203F4000694600F081F9C8B10D2002A9FFF72CFF9DF81530072033B14FF6FF71FFF716FF31
:203F6000204611B030BD9DF81A10FFF70FFF204611B030BD4FF0FF3011B030BD69460E205D
:203F8000FFF712FFE0E700BFF8B5054658B314464AB30C200E46A84700232074A3741EB32C
:203FA000E37463750920A847002701232376A07567740720A847A07600F09EF8E0830A20A7
:203FC000A847012816BF03236776637600F094F8A0830B20A847012813D056B10223E375CF
:203FE00001232375F8BDF8BD0820A8476675E074D8E70323E375637E022BF1D0002323758E
:20400000F8BD0023E375F6E730B591B0054600F073F84FF6FF73984258D0402268460021DD
:2040200002F05CFE2D4B1A7822B35DBBFFF7D0FE6A46C1B22A48FFF7A7FFFFF7C9FE002863
:204040003CD0FF238DF800308DF801300D20FFF7B7FE014602A8FFF7D5FEFFF7FBFD0E90A9
:20406000FFF70CFE0F90684600F0FEF80446CDB911B030BD01221A70FEF7ECF9194B18701C
:20408000002DD3D00720FFF789FE0028CED1154C2178F1B189B20720FFF778FE23780133AC
:2040A0002370C3E7FFF78EFD80B1FFF7E3FD0146684600F025F9204611B030BD0E20FFF700
:2040C0007FFE01466846FFF79DFEBFE74FF0FF30CEE7012319462370DDE700BF92110020B8
:2040E0009D3D0000911100200120FFF78DBF00BF0020FFF789BF00BF014B1888704700BF83
:20410000F4010020B8B1037A30B4022B14D00378022B1DD00379F3B9447A14F0030418BF52
:204120000124C37913F0030318BF012301B10C6002B1136030BC7047C579447A037965B1A5
:20414000B4B1032D29D1032C31D0022C16D0D3B100231C46EAE70024E3E70CB9012B23D0E0
:20416000002BF5D1023C012C8CBF00240124DDE72BB1032D11D123460024D7E7A3B90DB930
:204180000123EFE70123022DECD0032DF4D1A4F10204B4FA84F46409C8E7022DD5D1002C43
:2041A000ECD143B12346C1E701230024BEE7002BE8D00023E0E72346D4E700BF30B50D4668
:2041C0000446002183B02846062202F087FD637DD9075CBF01232B70237E012B23D904F1DD
:2041E0001000694601AAFFF78DFF009B0BB10223EB70019B0BB102236B70E37D03F003034B
:20420000022B03D0032B0CBF08230023AB70637E03F00303022B03D0032B0CBF082300231B
:204220002B7103B030BDE37D9A0706D0637E9B0703D0E28BA38B9A4202D000232375CEE75C
:2042400001232375CBE700BF02280CBF022308230B4403E013F8012DFF2A03D18B42F9D1ED
:20426000012070470020704700B583B06946FFF7A5FF9DF800309DF801109DF80220023307
:204280000B449DF8031013449DF804200B449DF805001344184403B05DF804FB70B4857853
:2042A0004378047805F00102C678150103F0010245EAC202037904F00704144306F00102C7
:2042C00044EA421203F0010342EA83130B704479437A8579C27904F0010444EA831405F0C2
:2042E0000105037A02F0030244EA450040EA820203F0030342EA03134B7070BC704700BF8B
:20430000F0B50C46074683B06946FFF757FF07F110002146FFF7C2FF9DF80030012B02BF53
:20432000BB7E0320A3709DF8013018BF0220022B2ED09DF802E0BEF1000F0ED0034600EBDD
:204340000E02D2B207EB0E0111F8016D5D1CE654EBB29342F8D17044C0B29DF80330022B48
:2043600020D09DF804E0BEF1000F0FD003460EF1080200EB0E063A44F6B212F8015D591CE3
:20438000E554CBB2B342F8D17044C0B203B0F0BDBA8B431C2254BA8BDBB2120A0230E254B3
:2043A000C0B2C6E7FA8B431C2254FA8BDBB2120A0230E254C0B2D4E72DE9F047027843783F
:2043C00084B0C2F3001CC2F3401E02F00709C2F3C008C2F3801403F0010AC3F34007C3F34C
:2043E0008106C3F3011508469B0901A90A228DF804908DF805808DF806C08DF807E08DF843
:2044000008408DF809A08DF80A708DF80B608DF80C508DF80D3002F0EBFB04B0BDE8F087EC
:20442000012950DD2DE9F041144686B00F4603A90546FFF7C1FF03A904F110000A2202F07D
:20444000D7FB9DF81130002B39D0AE1C03A801A902AAFFF757FE9DF81380B8F1000F43D077
:20446000029B002B34D0727816F8023B03EB0223A383B8F1020F56D0B8F1030F3BD09DF8C7
:204480001580B8F1000F27D0019BF3B1717816F8023B029A03EB01239BB2E383D2B1B8F1D7
:2044A000020F4AD0B8F1030F31D0701B3B1A8742B8BF0020A663E36306B0BDE8F081AB7897
:2044C000EE1CA376C2E700207047A38BE383E6E7A383CEE7A383E2E704F108001C49FFF7B6
:2044E00091FCA4F81E80E0E720461949FFF78AFCA4F81C80C3E706F108000346621E13F835
:20450000011DB34202F8011FF9D10646B7E708363246E31D04F10F0012F8011D03F8011FBD
:204520008342F9D1C1E720460949FFF76BFC7378237016F8023B6370A1E704F108000449C1
:20454000FFF760FC7378237216F8023B6372ACE78071000030B504461A4A83B01068002384
:20456000019020468DF800308DF80130FFF7B0F810B1FE2003B030BD01A920460422FFF790
:20458000DDF828B12046FFF7B3F8FF2003B030BD204669460222FFF7EFF805462046FFF7EA
:2045A000A7F80DB1FF20E5E79DF80030C22B01D02846DFE79DF80100A0F11400B0FA80F0A7
:2045C0004009D7E79471000030B5052383B08DF804300446FFF77CF840B9204601A90122F6
:2045E000FFF7ACF848B12046FFF782F8002003B030BD9DF80730DB0708D520460DF107019B
:204600000122FFF7B9F80028F3D0ECE72046FFF76FF8012003B030BD10B5184C82B000280B
:2046200018BF04462378FF2B03D02046FFF740F810B1002002B010BD2046FFF759F8AB2352
:2046400020468DF80730FFF743F848B920460DF107010122FFF772F858B12046FFF748F872
:204660002046FFF777FF0128E4D02046FFF728F8DFE72046FFF7A8FFEFE700BF98710000A8
:2046800070B5174C002818BF04462046FFF79CFF054640B900252046FFF712F8002818BF84
:2046A0000025284670BD2046FFF712F806460028F0D12046B921FFF725F860B92046FFF7D7
:2046C00017F80A262046FFF745FF731E0028E2D013F0FF06F6D120463546FFF709F8DAE728
:2046E0009871000010B50446FFF796FF00B910BD2046BDE81040FFF7C3BF00BF38B50546C7
:204700002A4B01212A4A19601368002BFCD0294AC021294B11601B689B073FD4274BA2F529
:204720007F321B68A2F5D572C3F3034343F0F0031370234A234B002111601C68204600F07B
:20474000C1F82846214600F031FA40F20E221E4B1B689BB2934212D81C4A13681268C3F345
:204760000363C2F30342EBB9911F012983BF023202F00F0212017022154913430B702046A8
:2047800000F0DEF8134B02201B68DB6898470949114B4020012208601A6038BD0F4B722238
:2047A0001A70C6E7013BDBB2DEE700BF101009409402224300600C40B03F0050AC3F0050EB
:2047C00040100940B43F005014130050BC12005002600840A00100109404604256620840D3
:2047E00038B51E4B00251C68631C08BF002400F02FFE1B481B491C4A012305600B6013609F
:2048000000F09EFA194B1B6823B1194B20461B68FFF774FF174B0021174A19601368174967
:2048200023F07F6323F4702343F09C7343F4803313600B68C3F30133012B04D0104A136808
:20484000002BFCD138BD0B6823F0407323F4403343F400320A600B60F0E700BF1C13005055
:20486000840460425C600C400822044380012843000120438C210840482003400400094058
:204880000C006842064B1B68C3F30260C3F3C162800040EA0220C3F381531843704700BF76
:2048A00098130050064B1B68C3F30510C3F3892200041B0340EA82509BB21843704700BFC1
:2048C00098130050184B1B68C3F30463152B88BF203B03EB20730133152B1DDC13F10A0FED
:2048E000B8BF41F616731ADA1049114A0B801368104913F002030ABF0F4A40F0406013600D
:20490000C0F3C0630D4AC0F3806083F0010380F001000B601060704741F61573E4E703F0E0
:204920001F0343F4F853DFE7B81200506E620840000009400000204394042A4308002043BF
:20494000F8B5C0F38143012B2CD0022B2ED14F4B1B681B0702D44E4B40221A604D4A4FF47B
:2049600000714D4B11601B68C0F38150C3F3C14343F03003012882F8883037D020D3022817
:2049800019D10420032100F059FC47F61800434B434C1B68434903F03F03434A2370088042
:2049A0001368F8BD3C4B1B689A034BD53F4B4FF000421A60CBE70420022100F03FFCE4E78C
:2049C00043F2BD760420012100F038FC384D3948394B86240121394A2E6004601960136846
:2049E000002BFCD0344B00221A60CEE700F04EFC04460420214600F021FC042000F046FC7E
:204A0000A042FAD12E4B2A4E18682A4C2A4B87B2C0F307450121294A3760256019601368B0
:204A2000002BFCD0274B244A1B68002111601B684FF06022000E072198471C4B4FF48062A5
:204A40001A609EE7194A20494FF4804414600A68C3F3033422F08F022243C3F3004442EA83
:204A6000C4121A4C0A602268C3F3032122F00F020A431749256822600A6803F0E70322F0EC
:204A8000E70213430A680B6061E700BFB03F005068A00C4080A00C408C1300506C13005036
:204AA0000BB00C4070B00C402C20094040A00C403C600C4040600C4044600C4084088C43A3
:204AC000A83F0050B40100100C6008400B6008400A600840174B82031B68C3F38361C3F307
:204AE0008F230ED440F30722002A0DDA5B0806D149084FF001030CBF19464FF6FF730132D3
:204B0000F4D143EA01407047FBD05B0043F00103B3F5803F4FEA410007D340F001010F2929
:204B200086BF4FF6FF730F210123013AEDD143EA014070475013005070B4194A194B1168F0
:204B40001B68C1F3035213F00103C1F303450ED012052B048CB2212842EA040243EA0203B7
:204B600084BF01F080410B43184670BC70470E4C246844F30326B2180DD40F2A0DDD4FF45A
:204B8000700244F303346419E4D40F2CD4BF23044FF47023DEE71A46F3E71205F1E700BF88
:204BA00078130050B03F0050AC3F005030B5044683B00846FFF78EFF18210246534800F061
:204BC000F5F8534B51481A681B68C2F3870203F0030342EA032300932C2140F2FF320023BD
:204BE00000F0FEF84B4B49481A681C21C2F30D0200F0DCF8484B45481A68142102F0FC326A
:204C000000F0D4F8454B10211A68404822F07F4222F4403200F0CAF82046FFF78DFF0C21EB
:204C200002463A4800F0C2F8212C20D83C4B222111221F2C19701A704FD834482821002252
:204C400000F0B4F8374A3848384B6025157080244FF47C41364A047019802C48082100F06C
:204C6000A5F8344B4FF480021A6003B030BD324C2B4A2368C3F300735B0043F02003DBB254
:204C800013702368C3F3407343F01003DBB21370FFF7F8FD282102461C4800F087F8274B86
:204CA000204A1B682049C3F301535B0043F0600313702368C3F3C063DB0063F07F03DBB27F
:204CC0000B702368C3F345539B0043F47C43A2F89030FFF7E7FD0246BFE7FFF7D3FD2821BE
:204CE00002460A4800F062F8144B0E4D1B680E48C3F301535B000D4A43F0600380244FF404
:204D00007C412B7004701180E3E700BF00A00C40501300507C130050741300507013005085
:204D200049A10C404CA10C4041A10C40DCA10C4000803F4040A00C408C13005098130050F8
:204D4000164A1368002BFCD11549164A0B68126823F00053520723F0070319D410B4124AEC
:204D600043F00053146843F00400A4070CD043F007030B60136803F00303032BFAD1084B0B
:204D800018605DF8044B704708605DF8044B704743F0005343F005030B6070470C006842E4
:204DA00004400340B03F0050004003402DE9F04107460E46904600F05DF8084D2B68074C6C
:204DC000002BFBD0012347F80680236008B1BDE8F081BDE8F04100F051B800BF00800C4048
:204DE00070B50F2BBDF8105088BF103B00EB410188BF120C05FA03F594BF01F5007601F56F
:204E0000017645EA024500F035F8074C23680649002BFBD0012335600B6000B170BDBDE8BE
:204E2000704000F02BB800BF00800C400F2B2DE9F8439846174600EB010904D9A3F1100820
:204E400009F10209170C00F015F8094E3468084D002CFBD0B9F800400123A4B22B6008B937
:204E600000F00CF8274047FA08F080B2BDE8F88300800C40EFF3108072B67047EFF31080BD
:204E800062B6704770B50646FFF7F4FF0546074A1368064C002BFBD0B0470123236005B136
:204EA00070BDBDE87040FFF7E9BF00BF00800C404FF6FF3330B40A4D12022C6802F4706225
:204EC000090AC0F38710090410432340054A24F4806408430B432C602B60106030BC7047A4
:204EE00014800240188002402DE9F84F8A4B1B6813F0020407D08949894B8A4A08208871D2
:204F00001A60BDE8F88F064600F0EAF9864B1A681317910203F1010308D4C0F13E01C9101F
:204F20000829A8BF08218B42B8BF0B467F490D687F49C5F304650968152D88BF203DC1F3EA
:204F4000044115292B4488BF2039152B00F3998013F10A0F80F2CA8041F616756FF009036D
:204F6000DFF8E4E1734FAEF800503F6817F0030518BF01257F0748BF45F002050EB145F06D
:204F80000405664E96F90770C71B042F03DCB779AF4200F0A980B0F10F0700F19C8007EB6A
:204FA00007142712072F00F28E8000F0AC8007F10108DFF898E14FEA8808DFF894C1C644FB
:204FC000C444F0463F02DEF800E0DCF800A015F0040CCEEB0A0A5FFA8AFB1CBFCAF3072E9B
:204FE000F34415F0020E1CBFCAF30749CB4415F001095ED1E41B04FB0BF48034240AD8F881
:2050000000805FFA88F7BCF1000F02D0C8F3072C6744BEF1000F02D0C8F3074E7744B9F10C
:20502000000F01D007EB1867C91A00294FF03403C8BF4B43D2B202FB03F23C44B2FBF4F3FE
:205040004FF6FF718B4228BF0B467F289AB2B2802DDC10F1800FB8BF802352DAF371B57108
:20506000354B1E2A19682D48134631600DD81F238380324B2A48324A002103601160BDE859
:20508000F88F41F6157515236AE7B2F5007F28BF002230D35B08B3F5007F02F10102F9D2C2
:2050A00028490F3B1B09114341EAC303E2E77F23D4E70BEB1A6AE41B04FB0AF48034240A4E
:2050C0004FF001099BE7DFF88C804FF4E067C446DFF884E077E705F0040C05F0020E05F0F6
:2050E0000109DFF86C808AE7B288B9E703F01F0545F4F85534E70F3A1209124BD2001343F7
:20510000B8E7C3B2AAE7DFF84C80DFF84CE0C4464FF4E06757E700BF00000940F00F00204B
:2051200030100940FDFDA400B43F0050B81200503C110050242208400820094008E7A4803C
:205140003410094000E7A4806E620840981300509C130050B8130050B413005038B5154B26
:205160001C68A4B204B938BD00F0BAF8124B93F90720904216DB9A880F49944210D34FF6B6
:20518000FF700E4B0D681B68A41A02335B1B1F2B28BF1F235B08DC401444844228BF0446A5
:2051A0008C8038BD6FF07F029042B8BF1046D871E1E700BF34100940F00F00200820094082
:2051C000194B1B6813B3194A116801F04062B2F1406F1BD016480268920717D4154A126851
:2051E000920713D410B4144A0468126814F0050FC2F3035202F11C024FEA021207D09342FB
:2052000002D224F0050404605DF8044B70479342FAD90A0158BF44F001044B01044B58BF29
:2052200044F004041C60EFE728500940B43F005000000940B03F0050AC3F005030B50D46E1
:20524000C10783B0044616D4A2070BD4630707D5ADB200950C4800210C220223FFF7C0FDE2
:2052600003B030BDABB200930748002102220123FFF7B6FDEAE7ABB20021009302480B46C0
:205280000122FFF7ADFDDFE700A00C4008B504284FF0340107BF4FF0C0421D234FF08052E4
:2052A0001C230248FFF7C2FD08BD00BF00A00C4001280AD018B1084B01221A607047074A7C
:2052C000136823F0050313607047044A136843F005031360704700BF800104430000094010
:2052E0000849094B094A1B680878126840B2A2F5407202FB00F043F31003A3EB201080305A
:20530000001270470C130050305009402850094010B4064A064C1368206811688B42FAD151
:205320001B0443EA10405DF8044B7047082009400C2009404BF69A11114A1368C3F30F33D6
:205340008B4212D04BF6BE12934216D04BF64132934207D04BF62030834214BFFF20022008
:2053600040B27047032040B2704713681B0F0B2B0CBF0420002040B27047012040B270475B
:205380001813005038B5154B1D68C5F30334FFF7D1FF00BB631E0E2B1DD840F6091101222E
:2053A00002FA03F3194041B95A040DD413F0020F14BF0220FF2040B238BD15F4000F0CBF77
:2053C0000420072040B238BD15F0807F0CBF0520062040B238BDFF20F4E700BF94120050EB
:2053E00038B5194A194B1B6814681D0FE4B2802C28BF0024FFF79EFF04281BD8DFE800F018
:205400000E0803030400ADB90A34E0B240B238BD6DB1022D0ED11434E0B2F7E76B1E072BB0
:2054200008D8DFE803F004070C0707070E090A2040B238BDFF20E9E71634E0B2E6E71420B2
:20544000E4E71520E2E700BFA01000501813005008B5FFF76FFF00B1FEE7FFF7C1FF15289F
:20546000FADD08BD102970B50C46054602D80AE0102C0BD92B686868084910229847103CA0
:205480000028F5D070BD08460029FBD022462B6868680249BDE87040184700BFA471000012
:2054A0002DE9F04F82460F468FB007924FF0000B3B78002B00F0E880252B08BF3E461BD09C
:2054C0003C4602E0252B04D014466378621C002BF8D1974216460CD0D51B39462A46DAF8DB
:2054E0000030DAF804009847002840F079826378AB44002B00F0C88073780136002B00F00A
:20550000C38019460025A1F12003102B1BD8DFE803F0171A1A141A1A1A1A1A1A1A111A0ED9
:205520001A1A090045F0100516F8011FEBE745F00105F9E745F00605F6E745F00805F3E790
:2055400045F00205F0E7A1F13102082A0B46374600F2DC80A1F13002092A4FF000040AD809
:2055600004EB840403EB440417F8013F303CA3F13002092AF4D92E2B00F0D1804FF0FF36EF
:205580006C2B00F03D81682B00F04281782B00F28180DFE813F079007F007F007F007F00AB
:2055A0007F007F007F007F007F007F007F007F007F007F007F007F007F007F007F007F00FB
:2055C0007F007F007F007F007F007F007F007F007F007F007F007F007F007F007F007F00DB
:2055E000BE027F007F007F007F007F007F007F007F007F007F007F007F007F007F007F007A
:205600007F007F007F007F007F007F007F007F007F007F007F007F00BB027F007F007F005C
:20562000B802B502B2027F007F007F007F007F007F007F007F007F007F007F007F007F00D2
:205640007F007F007F00AF027F007F007F007F007F007F007F007F00AC027F00A902A602A4
:20566000A302A0029D027F00A6027F007F007F007F009A0297027D007F007F0091027F005F
:205680008E027F007F00940258460FB0BDE8F08F45F4407505F4E063B3F5806F07F10107A4
:2056A00000F0CE804FD9B3F5C06F00F0A581B3F5E06F00F09A81B3F5A06F7FF4F9AE079B22
:2056C000012C1A6803F1040307938CBF04F1FF340024EB078DF8202000F1D08150462146F9
:2056E000FFF7C0FE002840F07B81DAF80030DAF8040008A901229847002840F071810BF1D1
:20570000010C0CEB040505EB040BD1E62A2900F08C800B462E2B4FF000047FF42FAF7B7846
:20572000791CA3F13002092A7AD80F46002606EB860603EB460617F8013F303EA3F13002D4
:20574000092AF4D91CE7B3F5807F00F0B080B3F5407F7FF4ADAE079BC34A1968C34815F406
:20576000804F03F1040308BF9046079318BF80460A460023002900F094810DF13309484622
:20578000110941EA03714FEA131E02F00F0673460A4618F8061000F8011D52EA0301EFD19A
:2057A000B9EB0006034600F07E810336B4424FF030024FF078014FF0230300F8022C8CBFD9
:2057C000A41B0024EA0700F8011C00F8033CA0F1030800F1A18150462146FFF743FE00289E
:2057E00040F0FE804146DAF80030DAF8040032469847002840F0F4805E4406EB040B57E69A
:205800007B786C2B00F00481013745F06005BDE67B78682B00F09381013745F04005B5E63D
:205820002A2B00F091810F46A8E6079B771C1C680433002C0793B8BF45F0010573789AE65B
:20584000079BD3F8009004330793B9F1000F00F08F8299F80030002B00F0B2824B4613F814
:20586000012F002AFBD1C9EB0308002E02DBB04528BFB04644458CBFC8EB04040024E907C3
:2058800000F1E08050462146FFF7ECFD002840F0A7804946DAF80030DAF80400424698478E
:2058A000002840F09D80D84408EB040B00E6002EABBF25F0100501230196019315F4005302
:2058C000049305F0E00300F0A880402B00F07F8200F24181002B00F02D82202B40F05A8210
:2058E000079B1A1D079293F90020D317002A73F10001C0F22A82CDE902230023059305F424
:20590000C053B3F5805F00F09281B3F5C05F00F0BF81B3F5006F00F067810DF136064FF08B
:205920000008019B41F20802984541F6080303EA050380F0338101999342C8EB0101019198
:2059400000F0468141F6080201999342414400F031814FF000094A46049B73B1059B002B53
:2059600040F0838105F00603022B00F01B824048062B04BF02464FF0010909EB01039C4258
:205980008CBFE41A002415F00103049306D1E80640F1F681019B2344049C0193B9F1000F9D
:2059A00007D01146DAF80030DAF804004A469847B0B9019B08EB0B05102B40F291819B460A
:2059C00003E0BBF1100F40F28E81DAF80030DAF80400284910229847ABF1100B0028F0D0DF
:2059E0004FF0FF300FB0BDE8F08F079B1A680433C2F800B007935BE5DAF80030DAF80400DF
:205A00001D49012298470028EAD10BF1010B4FE5BB7845F080050237B8E5402B00F0C6819A
:205A200000F2A980002B00F09881202B40F02181079B049A05921A1D07921A780023CDE9E8
:205A400002235CE74946DAF80030DAF80400424698470028C4D150462146D844FFF702FD45
:205A600000283FF421AFBBE7D8710000C4710000FC710000B471000008720000DAF80030CD
:205A8000DAF8040008A9012298470028A8D1504621460BF10105FFF7E5FC00283FF433AECA
:205AA0009EE70DF13303302203F8012C581E04267CE645F41065EDE545F48065EAE545F40B
:205AC000C855E7E545F48855E4E545F4E065E1E545F48135DEE545F40075DBE545F402451A
:205AE000D8E545F42455D5E545F4A065D2E545F4C135CFE545F4B245CCE545F4A135C9E507
:205B000045F48445C6E545F44245C3E545F4E135C0E545F4C065BDE54146DAF80030DAF821
:205B200004003246984700287FF45AAF504621465E44FFF797FC00283FF45FAE50E7BB786C
:205B400045F02005023721E5079ABB78111D07911668023714E5602B00F0EC80802B40F0A0
:205B60001981079B073323F0070303F108020792D3E90023BAE6602B00F0EF80802B78D19E
:205B8000049B0593079B073323F0070303F108020792D3E90023CDE90223B0E6934200F029
:205BA000EC800022019241F608020199934241447FF4CFAEDDE9022313433FF4CAAE874BE1
:205BC00015F4804F864A4FF0020908BF1A46C3E60B46002908BF01230193019B4FF0000926
:205BE0004A4603EB0801B7E6DDE9028942464B46134300F0E7800DF136031E4606934046B0
:205C000049460A22002300F0E9FC30324046494606F8012D00230A2200F0E0FC804689467E
:205C200058EA0903EBD1069BC6EB030879E6DDE90223134300F0C6800DF1360306939E4673
:205C4000DDE90223D00840EA4370DE0802F007013346024630310EF8011D52EA0301F1D17C
:205C6000069B7646CEEB03085BE64FF001095D4A83E605F4C053002200200021B3F5805F73
:205C80000592CDE90201D2D0B3F5C05F40F08580DDE90201544A554B15F4804F14BF90468E
:205CA000984602460B46134300F08C800DF1360306931E4602460B46110941EA03714FEA5C
:205CC000131E02F00F0073460A4618F8001006F8011D52EA0301EFD1069BC6EB030820E6EA
:205CE000019B9B464BB15A46DAF80030DAF804003F49984700287FF473AE31464246DAF8BF
:205D00000030DAF804004D44984700287FF468AE019B2B441E46049B002B3FF46EAD50463F
:205D20002146FFF79FFB00287FF45AAE06EB040BFFF7BEBB079B1A6804330793002A4FEA02
:205D4000E27373F10001BFF6D6AD524263EB4303CDE9022301230593D1E5049A079B059205
:205D60001A680021104604330793CDE90201C6E5DFF884904FF0060877E5012301932CE796
:205D8000504621460292FFF76DFB029A00283FF405AE25E600220023ADE5DDF814800DF121
:205DA0003606BEE5134A4FF00109E6E5079B049A05921A1D07921A880023CDE902239EE5C9
:205DC000984652E54FF000080DF13606A9E5079B1A1D0792B3F90020D31787E5F0710000AA
:205DE000EC710000F4710000C4710000D8710000B4710000F8710000007200000AB9002080
:205E0000704708B508461146FAF726FD002008BD0FB400B583B004AB53F8041B04481A4600
:205E20000193FFF73DFB03B05DF804EB04B07047B801002010B50C200121FDF7A7FFBDE813
:205E40001040014B5B68184788710000014B9B68184700BF88710000014B1B6A184700BF36
:205E6000A46E0000014B5B6A184700BFA46E000008B5044B1B6898470028ACBFC0F17D00A0
:205E8000682008BD8871000000F078B910B500F023FABDE81040014B1B6A1847A46E000092
:205EA00000B583B0FDF7EAFE032814D0FFF7CEFF002810DB0E20FDF783FF0F49FDF7A6FFA4
:205EC00010B9FDF785FF30B10D20FDF779FF0A49FDF79CFF10B103B05DF804FBFDF79EFFCC
:205EE0000028F8D1FDF7C0FF044B9B68019303B05DF804EB184700BFC4110020307200006C
:205F000070B590F82D300546012B0EDD1F24FCF7A1FAB0FBF4F12B4601FB1401054A05F1ED
:205F20000C00BDE87040FCF797BE033301249C40013CECE7CD5F00002DE9F0470D4614464B
:205F40008B680746506BD3F80090D3F8048092F82C60FDF727FD6868FDF7E0FDA96817485D
:205F6000FDF774FD29461648FDF770FD606BFDF7F3FC78B1002384F82C3084F82D3020467D
:205F8000FFF7BEFF484641463A463346BDE8F047FDF7A2BF04F10C00FCF76AFE21460948FB
:205FA000FDF700FD21460848FDF750FD484641463A463346BDE8F047FDF78EBFC0010020EC
:205FC000CC01002068100020D8010020002800F095802DE9F047044682B0406BFDF7BCFCF6
:205FE000054600287AD04068FDF7AEFD61490D20FDF7DAFE01210820FDF7C8FEFFF71AFFE7
:20600000002848DBFDF736FEDFF86C8190F80290D8F80460FDF72EFE0746FDF735FE014620
:206020003846B047FDF7D4FED8F818600746B047002861D1002F75D1D8F81CA0D0470028FF
:206040005AD1D8F80870FDF71FFEB84700286FD1FAF75AFA6FF019073F1A03E0FAF754FA16
:20606000C74202D5D0470028F8D0B04710B9D047002879D0FAF748FA6FF02A06361A03E0FC
:20608000FAF742FAC64202D5D0470028F8D0D04738BB022000E00520AA68FAB102282ED0D7
:2060A00003281BD0012836D194F82D300133DBB2052B84F82D3094F82C3006D901330021CB
:2060C000DBB284F82C3084F82D10127A9A4233D92046FFF715FF6868FDF71AFD02B0BDE88C
:2060E000F087D8F8103001A803219847032803D19DF806304B4525D00120CDE7704794F806
:206100002C3000210133DBB284F82C3084F82D10127A9A42DCD829462246FFF70DFF02B009
:20612000BDE8F087D8F80860FDF7AEFDB04748B10228E1D00420AFE7294622460120FFF7F9
:20614000FBFECBE7AB68002BC8D094F82C3000200133294684F82C3084F82D002246FFF734
:20616000EBFE02B0BDE8F087D8F814309847002880D08EE7C4110020A46E00002DE9F0413A
:2061800006460E200F46FDF71BFE4D4B05461A78002A49D04B4A1078002842D0431CDBB228
:2061A00081B207201370FDF7F1FD01210C20FDF7EDFD4548FDF7D0FB044628B917E0204620
:2061C000FDF710FC044690B1201D2946FDF71EFE0028F4D0606BFDF7FBFB07282CDD304629
:2061E0003946BDE8F04104220123FDF775BE3748FDF70EFC04460028F1D02946201DFDF789
:2062000001FE002304F13000606384F82C3084F82D302363FDF79CFB2B482146FDF79EFB4B
:20622000D8E701210223BCE701221A70FCF712F9244AC0B21070AFE72548FDF7E9FB054684
:2062400030B32448FDF7E4FBA860E8B1FDF73CFC6860A8B10620D5F80880FDF79FFDC0B2B1
:2062600020B388F8080088E8C0002946606BFDF775FB606BFDF770FB85421BD0BDE8F08103
:206280001448A968FDF7E2FB29461148FDF7DEFB606BFDF79DFB0028A1D121460A48FDF78D
:2062A00081FB21460948FDF7D1FB98E7082388F80830D8E72046BDE8F041FFF721BE00BFF9
:2062C000931100209411002068100020D8010020CC010020C001002008B50548FDF786FB57
:2062E0000448FDF783FBBDE808400348FDF77EBBCC010020C0010020D8010020014B002246
:206300001A6070474011002010B50446FDF7E8FC0D4A0E4B10681988FDF7F2FC74B12146BD
:206320000E20FDF741FD0A490D20FDF73DFD094B002001469B689847012010BD06490E2047
:20634000FDF732FDEFE700BFCC110020D0110020C411002014720000807100002DE9F041D4
:206360000C4B1C68A4B1FDF775FC0746FDF786FC06460D20FDF724FD05460E20FDF720FDAD
:20638000314603462A463846A446BDE8F0416047BDE8F08140110020704700BF704700BF75
:2063A00000207047002070470020704700207047704700BF0120704701207047704700BFE5
:2063C000704700BF704700BF01207047012070470020704700207047704700BF704700BF87
:2063E000704700BF70B5048805466CB1652C07D11A4B1B788B4215D065232B80012070BD7A
:2064000000230380032070BD0120FDF7D3F9234613484FF42071134AFCF71EFC65232B8070
:20642000012070BD92F84D405CB1012CE4D10C48FCF71EFC2046FDF7E1F90B48FFF7E8FC46
:20644000DAE70A4E0A483168FFF7E2FC31682346C9010348074AFCF7FFFBCDE7D411002056
:206460004C110020A5650000C47200006C110020A4720000A564000010B50120FDF7F6F9DA
:206480000548FFF7C5FCBDE8104004488021044A0023FCF7E1BB00BFD87200004C11002090
:2064A0007964000010B50B48FFF7B2FC0220FDF7A5F90120FDF77EF907488021FCF7C6FC5E
:2064C000BDE8104005484FF42071054A0023FCF7C3BB00BFF0720000701100204C11002084
:2064E0007964000010B50220FDF7C0F9FBF7B2FF124A3223A2FB0012120903FB1203104C9E
:206500009BB222680F48134419462360FFF780FC0D4B22681B689A4200DA10BD0220FDF7A4
:2065200049F90A48FFF774FC0948FCF7A1FBBDE8104008488021FCF789BC00BF1F85EB51C4
:20654000481100200073000044110020307300004C11002070110020F8B505460C460C4F74
:206560000121BE688120B0470A4A0B497B68012014600D609847094B002118608120B0474A
:2065800029462246BDE8F8400548FFF741BC00BF4C6E00006C110020441100204811002003
:2065A0005473000010B50120FDF728F90220FDF701F9B4200A21FFF7CFFFFDF76DF9830762
:2065C00000D410BD03488021034A0023BDE81040FCF742BB4C110020E564000053B94AB904
:2065E000002908BF00281CBF4FF0FF314FF0FF3000F03CB882B0EC462DE9005000F01EF817
:20660000DDF804E002B00CBC704700BF2DE9F041069C904606460F461D4600F029F808FBFA
:2066200001FCA8FB002300FB05C5B21A2B4467EB03038646C4E90023BDE8F0812DE9F8433C
:20664000089E1746804689461D4600F067F900FB05F3A0FB074507FB0137B8EB04043D44AF
:2066600069EB0505C6E90045BDE8F883704700BF00292DE9F043C0F2A8800026002BC0F2E3
:206680009E8081468E4690469C46174604460D46002B3DD18A4259D9B2FA82F33BB1C3F197
:2066A00020029D4020FA02F29F4015439C40390CB5FBF1F01FFA87FE01FB10550EFB00F3E9
:2066C000220C42EA0545AB4209D9ED1900F1FF3280F00B81AB4240F2088102383D44ED1AB9
:2066E000B5FBF1F301FB13550EFB03FEA4B244EA0545AE4508D9ED1903F1FF3280F0F780E4
:20670000AE4540F2F480023B43EA0043002203E08B420FD900221346341C18BF0124604210
:206720004FF0000565EB45015840514000196941BDE8F083B3FA83F2002A40F089808B4229
:2067400002D3804500F2E2800123E5E712B90123B3FBF2F7B7FA87F8B8F1000F3BD1ED1BD9
:206760004FEA174C1FFA87FE0122B5FBFCF00CFB10550EFB00F3210C41EA0545AB4207D949
:20678000ED1900F1FF3102D2AB4200F2C3800846ED1AB5FBFCF30CFB13550EFB03FEA4B219
:2067A00044EA0545AE4507D9ED1903F1FF3102D2AE4500F2AD800B4643EA0043ACE7524296
:2067C0006FEA060663EB43035BE7404261EB41014FF0FF3652E707FA08F7C8F1200225FAC7
:2067E00002F34FEA174CB3FBFCF11FFA87FE0CFB113324FA02F205FA08F50EFB01F92A4306
:20680000100C40EA0343994504FA08F407D9DB1901F1FF3078D2994576D902393B44C9EB3A
:206820000303B3FBFCF00CFB10330EFB00F592B242EA03439D4207D9DB1900F1FF325FD2B4
:206840009D425DD902383B445D1B40EA01428CE7C2F1200328FA03F10CFA02FC41EA0C0CDF
:206860004FEA1C402EFA03F1B1FBF0F51FFA8CF700FB151129FA03F30EFA02FE07FB05F9F8
:2068800043EA0E0E4FEA1E4343EA0141894508FA02F808D911EB0C0105F1FF3332D28945F8
:2068A00030D9023D6144C9EB0101B1FBF0F300FB131107FB03F71FFA8EFE4EEA014E7745A3
:2068C00008D91EEB0C0E03F1FF3117D2774515D9023BE64443EA0543A3FB0889C7EB0E0E24
:2068E000CE4509D305D0002216E71046F7E613460AE794404445F6D2013BF4E70B46E9E7DB
:206900001046A1E71D46CEE7014688E7134603E7023B51E702383D443AE700BF2DE9F0432F
